:100000000C943E000C9453000C9453000C94530039
:100010000C9453000C9453000C9453000C94530014
:100020000C9453000C9453000C9453000C94530004
:100030000C9453000C9453000C9453000C945300F4
:100040000C9453000C9453000C9453000C945300E4
:100050000C9453000C9453000C9453000C945300D4
:100060000C9453000C9453000C9453000C945300C4
:100070000C9453000C9453000C94530011241FBE95
:10008000CFEFD8E0DEBFCDBF11E0A0E0B1E0E6E504
:10009000F1E002C005900D92A631B107D9F70E9498
:1000A00073000C94A9000C9400001098119A089504
:1000B000109A119808951098119808951092C500FB
:1000C0008FEC8093C4001092C00088E18093C1003F
:1000D00086E08093C20008959091C00095FFFCCF08
:1000E0008093C6000895CDB7DEB765970FB6F89434
:1000F000DEBF0FBECDBF8FEF81B90E945B000E94B3
:100100005E0025E1E0E0F1E0CE010196DC01019026
:100110000D922A95E1F724E6F22ED82EE92E5E0103
:1001200085E1A80EB11C0D2D1E2DF80181918F01C6
:100130000E946C000A151B05C1F7FA94F110F3CF69
:1001400090E080E065960FB6F894DEBF0FBECDBF9D
:060150000895F894FFCFB2
:100156004C6520726F626F7420656E20494E463181
:060166003930300A0000F0
:00000001FF
