:100000000C943E000C9448000C9448000C9448005A
:100010000C9448000C9448000C9448000C94480040
:100020000C9448000C9448000C9448000C94480030
:100030000C9448000C9448000C9448000C94480020
:100040000C9448000C9448000C9448000C94480010
:100050000C9448000C9448000C9448000C94480000
:100060000C9448000C9448000C9448000C944800F0
:100070000C9448000C9448000C94480011241FBEB6
:10008000CFEFD8E0DEBFCDBF0E94D0000C94A70216
:100090000C9400002998289A0895299A289A08957E
:1000A0002898299808959C0190E080E08217930792
:1000B00009F4089542E04A95F1F700C00196F6CFA1
:1000C0008F929F92AF92BF92CF92DF92EF92FF9268
:1000D0000F931F93CF93DF9300D000D000D0CDB704
:1000E000DEB78D839E83B22EA32E242F352FAB0136
:1000F00009831A83BB82AC8269817A818B819C815E
:100100000E943A02F62EE72E982E892ED12CC12C71
:100110008D819E81C816D9069CF026960FB6F8945C
:10012000DEBF0FBECDBFDF91CF911F910F91FF902A
:10013000EF90DF90CF90BF90AF909F908F900895F9
:100140000E944A00F982EA829B828C8269817A81CC
:100150008B819C810E94BA01CB010E9453000E94B6
:1001600050002F2D3E2D492D582D09831A83BB8217
:10017000AC8269817A818B819C810E944D01698367
:100180007A838B839C8369817A818B819C810E9495
:10019000BA01CB010E9453008FEFC81AD80AB8CF1A
:1001A0008FEF84B900E014E322E836E440E050E049
:1001B000BA0188E790E00E94600000E014E322E8C2
:1001C00036E440E050E060E87EE388E790E00E949B
:1001D000600000E014E322E836E440E050E060E034
:1001E0007FE388E790E00E94600000E014E322E8EB
:1001F00036E440E050E060E47FE388E790E00E946E
:10020000600000E014E322E836E440E050E060E8FB
:100210007FE388E790E00E94600000E010E42CE1BA
:1002200035E440E050E0BA0180E293E00E946000D3
:1002300000E010E42CE135E440E050E060E87EE3CB
:1002400080E293E00E94600000E010E42CE135E4DD
:1002500040E050E060E07FE380E293E00E946000D5
:1002600000E010E42CE135E440E050E060E47FE39E
:1002700080E293E00E94600000E010E42CE135E4AD
:1002800040E050E060E87FE380E293E00E9460009D
:100290000E94500090E080E008955058BB27AA27A4
:1002A0000E9465010C9400020E94F20138F00E9445
:1002B000F90120F039F49F3F19F426F40C94EF0172
:1002C0000EF4E095E7FB0C94E901E92F0E9411027E
:1002D00058F3BA17620773078407950720F079F47B
:1002E000A6F50C9433020EF4E0950B2EBA2FA02D38
:1002F0000B01B90190010C01CA01A0011124FF27D3
:10030000591B99F0593F50F4503E68F11A16F040CD
:10031000A22F232F342F4427585FF3CF46953795CC
:100320002795A795F0405395C9F77EF41F16BA0B91
:10033000620B730B840BBAF09150A1F0FF0FBB1F3F
:10034000661F771F881FC2F70EC0BA0F621F731F88
:10035000841F48F4879577956795B795F7959E3FE5
:1003600008F0B0CF9395880F08F09927EE0F979576
:10037000879508950E94190288F09F5798F0B92F29
:100380009927B751B0F0E1F0660F771F881F991FCA
:100390001AF0BA95C9F714C0B13091F00E94330237
:1003A000B1E008950C943302672F782F8827B85F47
:1003B00039F0B93FCCF3869577956795B395D9F722
:1003C0003EF490958095709561957F4F8F4F9F4F2C
:1003D000089597F99F6780E870E060E008959FEFC7
:1003E00080EC089500240A941616170618060906CC
:1003F000089500240A94121613061406050608959B
:10040000092E0394000C11F4882352F0BB0F40F422
:10041000BF2B11F460FF04C06F5F7F4F8F4F9F4F62
:10042000089557FD9058440F551F59F05F3F71F0E4
:100430004795880F97FB991F61F09F3F79F087954B
:100440000895121613061406551FF2CF4695F1DFD4
:1004500008C0161617061806991FF1CF8695710564
:10046000610508940895E894BB2766277727CB0198
:1004700097F908950E944D020C9400020E94F20127
:1004800038F00E94F90120F0952311F00C94E90155
:100490000C94EF0111240C9434020E94110270F3A9
:1004A000959FC1F3950F50E0551F629FF001729F19
:1004B000BB27F00DB11D639FAA27F00DB11DAA1F28
:1004C000649F6627B00DA11D661F829F2227B00D75
:1004D000A11D621F739FB00DA11D621F839FA00D00
:1004E000611D221F749F3327A00D611D231F849F50
:1004F000600D211D822F762F6A2F11249F575040A7
:100500009AF0F1F088234AF0EE0FFF1FBB1F661F21
:10051000771F881F91505040A9F79E3F510580F0EA
:100520000C94E9010C9434025F3FE4F3983ED4F359
:10053000869577956795B795F795E7959F5FC1F78E
:10054000FE2B880F911D9695879597F90895F8943D
:02055000FFCFDB
:00000001FF
