:100000000C943E000C9453000C9453000C94530039
:100010000C9453000C9453000C9453000C94530014
:100020000C9453000C9453000C9453000C94530004
:100030000C9453000C9453000C9453000C945300F4
:100040000C9453000C9453000C9453000C945300E4
:100050000C9453000C9453000C9453000C945300D4
:100060000C9453000C9453000C9453000C945300C4
:100070000C9453000C9453000C94530011241FBE95
:10008000CFEFD8E0DEBFCDBF11E0A0E0B1E0EEEBF6
:10009000F4E002C005900D92A031B107D9F70E949B
:1000A0000D020C945D020C9400001098119A0895B2
:1000B000109A11980895109811980895089580EA5B
:1000C000809300011092B90080E28093B8000895F7
:1000D000FC0180E88083CF010C945F00982F93701F
:1000E000891305C0880F806A8093000108958FEFFF
:1000F0000895FA0194EA24E89093BC008091BC0032
:1001000087FFFCCF809100018093BB002093BC004F
:100110008091BC0087FFFCCF8091B900883161F7E6
:1001200084EA8093BC008091BC0087FFFCCF809163
:1001300000018093BB0084E88093BC008091BC00E8
:1001400087FFFCCF7093BB0084E88093BC00809154
:10015000BC0087FFFCCF6093BB0084E88093BC00A9
:100160008091BC0087FFFCCF8091BC0087FFFCCF53
:1001700084EA8093BC008091BC0087FFFCCF809113
:1001800000018F5F8093BB0084E88093BC00809166
:10019000BC0087FFFCCF84E88093BC008091BC004A
:1001A00087FFFCCF8091BB00808384E98093BC00F3
:1001B00080E0089594EA34E89093BC008091BC00FC
:1001C00087FFFCCF809100018093BB003093BC007F
:1001D0008091BC0087FFFCCF8091B900883161F726
:1001E00084EA8093BC008091BC0087FFFCCF8091A3
:1001F00000018093BB0084E88093BC008091BC0028
:1002000087FFFCCF7093BB0084E88093BC00809193
:10021000BC0087FFFCCF6093BB0084E88093BC00E8
:100220008091BC0087FFFCCF84EA8093BC00809162
:10023000BC0087FFFCCF809100018F5F8093BB00E3
:1002400084E88093BC008091BC0087FFFCCF84ECE5
:10025000211105C084E98093BC0080E0089521301D
:1002600009F484E88093BC009091BC0097FFFCCF18
:10027000FA019091BB0091932150AF01E9CF94EA2C
:1002800024E89093BC008091BC0087FFFCCF809154
:1002900000018093BB002093BC008091BC0087FFCD
:1002A000FCCF8091B900883161F784EA8093BC006B
:1002B0008091BC0087FFFCCF809100018093BB0040
:1002C00084E88093BC008091BC0087FFFCCF7093D2
:1002D000BB0084E88093BC008091BC0087FFFCCF0A
:1002E0006093BB0084E88093BC008091BC0087FFD2
:1002F000FCCF4093BB0084E88093BC008091BC009D
:1003000087FFFCCF84E98093BC0080E00895FB0167
:10031000260F372F311DDC018C918150990B862BD4
:100320009F2B2817390718F09C012F5F3F4F822F12
:100330008E1B24EA34E82093BC009091BC0097FF08
:10034000FCCF909100019093BB003093BC00909142
:10035000BC0097FFFCCF9091B900983161F794EA07
:100360009093BC009091BC0097FFFCCF909100014E
:100370009093BB0094E89093BC009091BC0097FFD1
:10038000FCCFF093BB0094E89093BC009091BC002C
:1003900097FFFCCFE093BB0094E89093BC00909152
:1003A000BC0097FFFCCF982F24E8911104C094E97A
:1003B0009093BC000895FA0131913093BB002093D3
:1003C000BC003091BC0037FFFCCF9150AF01EDCFA6
:1003D000DF92EF92FF920F931F93CF93DF93D82E6C
:1003E000D92F7B018A01C22F2C2FA801B7018D2D97
:1003F0009D2F0E948701282F30E0E20EF31EC81BBC
:10040000020F131FC111F0CF80E0DF91CF911F9138
:100410000F91FF90EF90DF900895CDB7DEB76D9705
:100420000FB6F894DEBF0FBECDBF8FEF81B90E942B
:100430005B008EE0E1E0F1E0DE011F9601900D929D
:100440008A95E1F71982FE0132968DE0DF011D9257
:100450008A95E9F78E01035E1F4FC8010E9468006C
:100460002EE0AE01415F5F4F70E060E0C8010E9486
:10047000E8018FE39CE90197F1F700C000002EE04E
:10048000AE014F5F5F4F70E060E0C8010E94DA008C
:100490009F85898198130EC00E945800C8010E9450
:1004A0005E0090E080E06D960FB6F894DEBF0FBE60
:0E04B000CDBF08950E945500F1CFF894FFCF04
:1004BE00A0506F6C79746563686E69717565000024
:00000001FF
