:100000000C943E000C945B000C9450000C94500037
:100010000C9450000C9450000C9450000C94500020
:100020000C9450000C9450000C9450000C94500010
:100030000C9450000C9450000C9450000C94500000
:100040000C9450000C9450000C9450000C945000F0
:100050000C9450000C9450000C9450000C945000E0
:100060000C9450000C9450000C9450000C945000D0
:100070000C9450000C9450000C94500011241FBE9E
:10008000CFEFD8E0DEBFCDBF21E0A0E0B1E001C0FE
:100090001D92A130B207E1F70E947E000C94AC00E3
:1000A0000C9400001098119A0895109A11980895D0
:1000B0001098119808958F938FB78F939F938FE126
:1000C0009EE40197F1F700C000004A9B05C08091B3
:1000D00000018F5F80930001E09A9F918F918FBF05
:1000E0008F911895F8948FEF81B91AB8E89AE9E6DC
:1000F000F0E0808183608083789408950E9472008C
:1001000080910001823011F128F481111CC00E94FD
:100110005500F6CF8330E9F0843091F70E94550006
:1001200010920001EDCF0E9455008FE19EE40197EF
:10013000F1F700C000000E9452008FE19EE4019799
:10014000F1F700C000004A99EECFE1CF0E945200C3
:0C015000D7CF0E945800D4CFF894FFCF06
:00000001FF
