:100000000C943E000C94A0000C9450000C945000F2
:100010000C9450000C9450000C9450000C94500020
:100020000C9450000C9450000C9450000C94500010
:100030000C9450000C9496000C9450000C945000BA
:100040000C9450000C9450000C9450000C945000F0
:100050000C9450000C9450000C9450000C945000E0
:100060000C9450000C9450000C9450000C945000D0
:100070000C9450000C9450000C94500011241FBE9E
:10008000CFEFD8E0DEBFCDBF21E0A0E0B1E001C0FE
:100090001D92A230B207E1F70E94BB000C94C7008A
:1000A0000C9400001098119A0895109A11980895D0
:1000B0001098119808950E9455002FE788E391E069
:1000C000215080409040E1F700C000000E9458009D
:1000D0002FE788E391E0215080409040E1F700C095
:1000E00000000895F8948FEF81B91AB8E89AE9E60C
:1000F000F0E0808181608083789408959C0181E0A4
:100100008093000110928500109284003093890042
:100110002093880080E48093800085E080938100B4
:100120001092820082E080936F0008951F921FB6A4
:100130001F921124109200011F901FBE1F9018954E
:100140001F921FB61F9211248F939F938FE19EE4FD
:100150000197F1F700C000004A9B0AC081E080933C
:100160000101E09A9F918F911F901FBE1F901895DB
:1001700010920101F6CF0E94720080910101882344
:1001800019F00E945500F9CF0E945200F6CFF89462
:02019000FFCF9F
:00000001FF
