:100000000C943E000C9448000C9448000C9448005A
:100010000C9448000C9448000C9448000C94480040
:100020000C9448000C9448000C9448000C94480030
:100030000C9448000C9448000C9448000C94480020
:100040000C9448000C9448000C9448000C94480010
:100050000C9448000C9448000C9448000C94480000
:100060000C9448000C9448000C9448000C944800F0
:100070000C9448000C9448000C94480011241FBEB6
:10008000CFEFD8E0DEBFCDBF0E945F000C946E00C2
:100090000C9400001098119A0895109A11980895E0
:1000A0001098119808959C0180E08217130608F0BB
:1000B000089592E09A95F1F700C08F5FF6CF8FEF29
:1000C00081B90E944D0088EE93E00E9453000E9487
:1000D000500090E080E00E945300F3CFF894FFCFEF
:00000001FF
