:100000000C943E000C9448000C9448000C9448005A
:100010000C9448000C9448000C9448000C94480040
:100020000C9448000C9448000C9448000C94480030
:100030000C9448000C9448000C9448000C94480020
:100040000C9448000C9448000C9448000C94480010
:100050000C9448000C9448000C9448000C94480000
:100060000C9448000C9448000C9448000C944800F0
:100070000C9448000C9448000C94480011241FBEB6
:10008000CFEFD8E0DEBFCDBF0E9462000C94AE007F
:100090000C9400004A9B0BC08FE39CE90197F1F799
:1000A00000C0000089B182FB882780F9089580E0B4
:1000B00008951098119A0895109A1198089510981B
:1000C000119808958FEF81B91AB890E080E08330DD
:1000D000910561F0C4F4009721F182309105B9F7E0
:1000E0000E945C000E944A00882329F10E94590066
:1000F0000E944A00882349F083E090E0E8CF84E042
:10010000FCCF85E0FACF049731F40E945F000E9493
:100110004A008823A1F30E945C000E944A008111DA
:10012000F0CF0E9459000E944A00882331F30E94B8
:100130004A00811102C082E0E0CF0E945C008FE1A2
:100140009EE40197F1F700C000000E9459008FE182
:100150009EE40197F1F700C00000E9CFF894FFCFCB
:00000001FF
